S01300004930315F53445F436172642E7372656398
S1132000E82A00203924000035240000352400008B
S113201000000000000000000000000000000000BC
S11320200000000000000000000000003524000053
S113203000000000000000003524000035240000EA
S11320403524000035240000352400003524000028
S11320503524000035240000352400003524000018
S11320603524000035240000352400003524000008
S113207035240000352400003524000035240000F8
S113208035240000352400003524000035240000E8
S1132090352400000000000000000000352400008A
S11320A035240000352400003524000035240000C8
S11320B00000000010B5064C2378002B07D1054B17
S11320C0002B02D0044800E000BF0123237010BDA0
S11320D03C04002000000000B04A0000084B10B58A
S11320E0002B03D00749084800E000BF07480368F5
S11320F0002B00D110BD064B002BFBD09847F9E70D
S11321000000000040040020B04A0000B04A000073
S11321100000000010B5044B984780235B00034A7D
S11321201360034A136010BD1D23000000440041E6
S11321301444004170B59AB0962080014C4B9847E6
S11321404C4E30004C4DA8474C484D4CA0474D4B8D
S113215098474D48A0473000A8474C48A0474C48F2
S1132160A0474C4B9847002800D0FEE74A48444C0F
S1132170A0474A48A047002249494A484A4B984741
S11321804A4D28704A48A0472B78002B03D0494871
S11321903B4B9847FEE74848394B98471222404941
S11321A04648474B9847414B1870002803D0454890
S11321B0334B9847FEE74448314CA0474348A04777
S11321C0434B1D2243493D48434CA047374B1870AD
S11321D0002803D041482A4B9847FEE74048284C42
S11321E0A0474048A04735483F4B98472F4B1870AD
S11321F0002803D03D48224B9847FEE73C48204C3A
S1132200A0473C48A0473C48A047012224492B480A
S11322102B4B9847254B1870002803D03748184B90
S11322209847FEE73648164CA0473648A047234D4A
S1132230354C2A00642101A8A04700280FD1334857
S11322400F4CA0473248A0471C48274B9847174BD0
S11322501870002807D02F48094B9847FEE701A8BB
S1132260074B9847E5E72C48054B9847FEE7C046DF
S113227045400000DC50340029240000F8450000EB
S113228005410000653F0000184600003446000088
S1132290584600001D3D00006C4600008C460000BE
S11322A00000002060040020593500009006002042
S11322B0A4460000BC460000D84600009806002052
S11322C0C9350000F4460000084700002447000018
S11322D094060020384700001539000058470000D4
S11322E07047000084470000BD3B00009447000095
S11322F0A8470000C4470000E4470000FC47000072
S11323001C48000038480000E53B0000504800002D
S11323106448000080480000A4480000344A536820
S11323201E218B431C390B435360324B8322920092
S11323309A829A8A0A439A821A00D3689B07FCD528
S11323402D4B0222FF329A602C4A5A601A005378AD
S1132350DB09FCD1284B8222D2015A80254AD3685A
S1132360DB06FCD50222234B9A841A00D368DB06D1
S1132370FCD5204B224ADA621A00D368DB06FCD56E
S1132380204B1A681B498B6A920E92021E48034026
S113239013438B620A00D368DB06FCD5154A938C81
S11323A01A490B439384144B194A5A601A00537800
S11323B0DB09FCD1174B184A9A620E4B1A6A17496B
S11323C00A401A621A6A80218A431A620A4B04225A
S11323D0FF329A60124A5A601A005378DB09FCD122
S11323E0104B00221A725A729A72DA727047C046FF
S11323F00040004100080040000C004001050300BB
S1132400B905FF7D24608000FF03FFFF040800007E
S113241000070B0000440041001001D7FFFCFFFF40
S11324200306030000040040BFF35F8F0138002857
S1132430FAD17047FEE70000F8B52A4A2A4B9A42BF
S113244011D01A00294B9A420DD2294A03339B1A00
S11324509B0801339B000022234822498C58845056
S113246004329A42FAD1234A234B9A420AD2D343E2
S113247021495B1803218B4304339B18002102C2BA
S11324809342FCD11D4AFF211D4B8B439360FD39C0
S113249090235B001B4AD1501B4AD3780325AB43DE
S11324A002242343D370D3780C27BB430826334339
S11324B0D370164B987B302290432022104398739C
S11324C0997BB943314399739A7BAA4322439A7304
S11324D00F4A536880210B4353600E4B98470E4BB1
S11324E09847FEE7B04A0000000000203C040020AA
S11324F0040000203C040020E40A002000ED00E079
S113250000200000007000410050004100480041DC
S11325100040004159440000393C0000431E9841EA
S1132520C0B2704710B5044B98470300022802D08C
S1132530581E8341D8B210BD1D3D000010B50422C1
S1132540002801D0100010BD002BFBD00022012B6D
S1132550F8D00248024B98470022F3E7CC48000029
S11325600541000010B50422002801D0100010BD60
S1132570002BFBD0012B04D00448054B98470022C4
S1132580F4E70448024B98470022EFE7E4480000D0
S113259005410000D848000010B50423002801D0EC
S11325A0180010BD01290CD0002916D002290FD023
S11325B00329F5D1952200214920094B984701238D
S11325C0EEE7952200214920054B98470123E7E7D0
S11325D080239B0013800023E2E70023E0E7C0464A
S11325E0813C00000020704710B5002A05D000236C
S11325F0CC5CC45401339342FAD110BD10B504002D
S1132600CA7E1202887E10432378032B00D010BDAB
S11326104A7D12020B7D13431B041843F7E730B5C0
S1132620016800291BD00C78202C11D93A2C1FD01A
S11326300B0001331A78202A0CD93A2AF9D14A1C02
S113264093420FD1302C10D102310160002504E0F7
S113265022000B0000253A2AF1D0280030BD0125C4
S11326606D42FAE701256D42F7E701256D42F4E773
S11326700B00E4E7F0B583B0040003790020002BDD
S113268001D103B0F0BDE56A30239C46A4446346FF
S113269061460193607801232A00104EB04703007D
S11326A00120002BEDD12371236AEB1A0020A269CB
S11326B09342E6D2E678012E0DD9084FA3699C46D1
S11326C06544607801232A000199B847013E012E30
S11326D0F4D10020D5E70020D3E7C04665250000EB
S11326E0F8B505000E000024C36A8B4203D00A4BE0
S11326F09847041E01D02000F8BD290030316878C5
S113270001233200054FB847002802D001340126C6
S11327107642EE62EFE7C046752600003D250000D4
S113272010B5040000230371013BC3621E4B98479C
S11327300323002801D0180010BD1C4BE35C1B02CE
S11327401B4AA25C1A431B4912B202238A42F2D1E9
S11327506733E35C1B066822A25C120413436622FF
S1132760A25C13436722A25C120213431B021B0ADE
S1132770114A934216D08523E35C1B068422A25C93
S1132780120413438222A25C13438322A25C12022A
S113279013431B021B0A094A94466344581E83418F
S11327A0DBB2C8E70023C6E7E12600002F020000E1
S11327B02E02000055AAFFFF46415400BABEABFFEB
S11327C010B5002814D00268002A13D01178092308
S11327D0002901D1180010BDD48881888C42F9D118
S11327E05078054B98470323C007C0170340F1E70F
S11327F00923EFE70923EDE71D250000F0B5D646D0
S11328004F464646C0B584B0070016000023036057
S113281008009F4B984704000B2300281FDB83000C
S11328209C4A9D58002D00D1A7E13D602B78002BD8
S11328300CD06878984B9847C30707D40023002E20
S11328400DD0430700D49AE10A2308E000232B703B
S1132850E0B26870914B98470323C20706D518006D
S113286004B01CBC90469946A246F0BD002E02D08E
S113287007334207F3D400212800894B98470027E7
S1132880012800D1B4E0032800D17AE10D23002807
S1132890E5D13C23EB5C1B023B22AA5C1A4380215A
S11328A0890012B20D238A42D9D13A33EB5C1B0260
S11328B04622AC5C1C430DD15723EC5C2406013B3F
S11328C0EB5C1B041C435423EB5C1C435523EB5C63
S11328D01B021C43AC614023EA5CEA70511E333B8B
S11328E00129BCD83033E95CA970303B0029B6D04B
S11328F0481E0142B3D13533EB5C1B024120285CF6
S11329001843824628810D230007A8D13733EB5C96
S11329101B024320285C18430DD15323E85C0006B6
S1132920013BEB5C1B0418435023EB5C184351231D
S1132930EB5C1B0218433F23EB5C1B023E26AE5D9F
S11329401E43B0460D23002E00D188E76243914612
S113295053461E0946444E440D23B04200D27EE73E
S1132960801B504B98470D23002800D177E74E4A2F
S113297082429241524201324C4B984200D902E1C8
S113298002306861EF614346D9192962F619AE62D3
S1132990032A5BD10D235246002A00D05FE752334D
S11329A0EB5C1B065E32AA5C120413435C22AA5C35
S11329B013435D22AA5C120213436B6282003C4BF8
S11329C09C466244520AF33BFF3B944200D246E7E2
S11329D001235B422B61EB6081336B711F3BEA5C2B
S11329E01202013BEB5C1343012B63D00322BBE0D7
S11329F02A00F332FF320020002105E06C46035127
S1132A001032043010280ED014780B00002CF5D0AE
S1132A10D3791B06947924042343147923435479EA
S1132A2024022343EAE70026022403E00436102E9E
S1132A3000D128E76B46F7582000002FF6D0390064
S1132A402800174B98470028F0D122E70D2356465B
S1132A50002E00D103E749446962022A10D14000E4
S1132A60134B9C466044400AF33BFF3B844200D234
S1132A70F5E601235B422B61EB6081336B7173E0FC
S1132A80032343435B08012108401818E8E7C046C4
S1132A901F260000580400201D25000025250000E5
S1132AA0212700002D410000F50F0000F5FF000074
S1132AB0FF010000791C2800374B984703220028A7
S1132AC052D100236B71354BEA5C1202344BEB5C40
S1132AD0134334491BB203228B4245D13323EB5CAD
S1132AE01B062F32AA5C120413433022AA5C134340
S1132AF03122AA5C120213432B4903228B4233D1A5
S1132B002A4BEB5C1B062A4AAA5C12041343852257
S1132B109200AA5C1343274AAA5C12021343264973
S1132B2003228B4220D1254BEB5C1B06244AAA5C72
S1132B301204134386229200AA5C1343214AAA5C1E
S1132B40120213432B61204BEB5C1B061F4AAA5C49
S1132B501204134387229200AA5C13431C4AAA5C02
S1132B6012021343EB6003222A701A4A938801333A
S1132B709BB29380EB80002371E60C236FE6002365
S1132B806DE601236BE602306861EF614346DB19B1
S1132B902B62F619AE62FDE6E12600002F0200006A
S1132BA02E02000055AAFFFF525261411702000095
S1132BB01602000015020000727241611B0200003F
S1132BC01A020000190200001F0200001E02000089
S1132BD01D0200005804002070B504002D4B9847D6
S1132BE000280AD12378032B08D060780022002122
S1132BF0294B9847431E9841C0B270BD6379012B9D
S1132C00F3D1210030310B008C229200A018002255
S1132C101A7001338342FBD15522204BE2545532C2
S1132C201F4BE254DE3BFF3B7A3AA3540132A354D8
S1132C300F330132A3540F32332022543F30852501
S1132C40AD006055174D605517482254174AA354D8
S1132C5023690132A354180A154AA054180C154AC2
S1132C60A0541B0E144AA354E3680132A354180A57
S1132C70124AA054180C124AA0541B0E114AA35411
S1132C80E3695A1CE262607801230F4DA8470023D0
S1132C906371AAE775260000992500002E02000042
S1132CA02F020000150200001602000017020000A7
S1132CB0190200001A0200001B0200001D0200009D
S1132CC01E0200001F0200006525000002000239F8
S1132CD04369023B0020994203D290784143906AB1
S1132CE008187047F8B505000C00012972D90120B5
S1132CF06B6999426FD22B78022B32D0032B47D0C9
S1132D000120012B67D14E087618710A2B6A9C4664
S1132D1061442800304B9847002802D001204042EB
S1132D2059E0771CF305DB0DEB1830331E78790A74
S1132D302B6A9C4661442800274B9847002802D000
S1132D400120404247E0FF05FF0DED19303528789A
S1132D5000023043E30701D500093CE00005000D03
S1132D6039E0090A2B6A9C46614428001A4B9847AB
S1132D70002802D0012040422DE06400FF235B00C4
S1132D801C402D1930356B781B022878184322E03B
S1132D90C9092B6A9C46614428000F4B98470028B8
S1132DA002D00120404216E0A400FE235B001C4038
S1132DB023003033EB18D87800069A7812041043B5
S1132DC02C193034227810435B781B02184300011D
S1132DD0000900E00120F8BDE1260000F0B5C64678
S1132DE000B505000E00E98084680220012C03D0A0
S1132DF02B685A69944202D304BC9046F0BD002C5F
S1132E001BD11A78032A14D01A8902209642F3D2CD
S1132E105B6AEC600220002BEED03009C3182B61F2
S1132E202B6830330F22164076019E196E61002004
S1132E30E2E75A6A002AE7D014009F783F01BE42B5
S1132E4013D3F61B0F4B984600E01E0021002868A0
S1132E50C0470400431C0ED001280ED92B685B69BF
S1132E6098420CD2F31BBE42EFD221002868064BD5
S1132E7098470300CDE70120BEE70220BCE702200B
S1132E80BAE7C046E52C0000CD2C0000F8B5CE46CC
S1132E90474680B507000C0016000225012902D917
S1132EA04369994204D328000CBC90469946F8BD66
S1132EB00378022B55D0032B67D00225012BF2D1C6
S1132EC04B08984688444346590A036A9C46614421
S1132ED0404B9847051EE6D1012343449946434697
S1132EE0DB05DB0DE20721D5FB18303319780F22FF
S1132EF00A403101FF20000101400A431A700123F6
S1132F003B714B46590A3B6A9C4661443800314B3D
S1132F109847002859D14B46DB05DB0D3609F6B23C
S1132F20FB1830331E7001233B71BCE7FB183033B0
S1132F301E7001233B714B46590A3B6A9C4661440F
S1132F403800244B9847002841D14B46DB05DB0D64
S1132F50FA18303212780F218A433605360F164399
S1132F60DEE7090A036A9C4661441A4B9847051E2A
S1132F7099D16300FF2464002340FB1830331E7092
S1132F80360A5E7001233B718DE7C909036A9C46CA
S1132F906144104B9847051E00D084E7A400FE232B
S1132FA05B001C4022003032BA18D3783C1930340C
S1132FB01B091B071E432670330A5370330C93708E
S1132FC0360ED67001233B716DE705006BE70500F3
S1132FD069E7C046E1260000F0B5C64600B5050025
S1132FE08846002907D1C668002E0FD043699E4247
S1132FF00DD301260BE0284B9847012841D9431CE7
S113300044D06B694646984201D23FE00126340021
S1133010214F0AE021002800B84700280DD0431CA6
S113302034D0012832D0B4422FD001346B699C4291
S1133030F0D3012E27D90224ECE7184A21002800F6
S1133040174B9847002815D14346002B0BD1EC6051
S11330502B695A1C1DD0013B2B616B790122134350
S11330606B71200012E02200414628000C4B984767
S11330700028ECD001384242424150420123184317
S113308004E0012002E0002000E0002004BC90469F
S1133090F0BD2000FAE7C046E52C0000FFFFFF0F5B
S11330A08D2E0000F8B5CE46474680B506000D00CB
S11330B0C488013423040420002B03D10CBC9046A3
S11330C09946F8BD3369002BF8D00F27274010D15B
S11330D001333361F168002904D133681B899C42B0
S11330E0ECD206E030688378013B22091A4090460E
S11330F007D0F480336830337F01DF197761002013
S1133100DCE72D4B9847814602204B46012BD5D94D
S113311001334DD033685A69914541D30230002DB3
S1133120CCD0F1681800254B9847814607204B46C0
S1133130002BC3D00538012BC0D001380133BDD0DA
S113314030681F4B984703000120002BB6D1336829
S11331501A0030328C2189008C466344002111709E
S113316001329A42FBD1356849462800154B9847ED
S1133170E862012533689A7890450DD21D71306854
S11331800F4B9847002815D13268D36A0133D362B4
S113319001239C46E044EDE7DA6A4146521ADA62BA
S11331A04B46F36049463068064B98473061A0E7C8
S11331B0012083E7012081E7E52C0000D92F0000DE
S11331C075260000CD2C0000F0B5DE4657464E466D
S11331D04546E0B585B004000E000B782F2B09D0CE
S11331E05C2B07D00023A36033781F2B04D9954BA5
S11331F09A4609E00136F5E700212000924B9847F2
S1133200002363610DE1013633782F2BFBD05C2B57
S1133210F9D0A1690B0008000B3020221A70013389
S11332209842FBD100200022082500239C4601235C
S113323099460323984601910294571CB35C202BB2
S113324000D8E5E02F2B00D1DAE05C2B00D1D7E0E9
S11332502E2B00D1ECE0854200D8C5E05CB2002CF6
S113326027DB7F24A3469B445C4669460C73E4B287
S11332701E2C07D92024A3469B445C460C73E4B25D
S11332801C2C1FD80232F45DA3462700403F3E2F7A
S113329004D9403FFFB27C2F00D9A7E06F1EB8428B
S11332A000D3A5E0471C01990B545B46CB55023073
S11332B0C3E7644641460C43211C6C462173217BC1
S11332C08C46CEE7222B21D02A2293465F4A5946C8
S11332D0039101998B461900029C2A23994217D025
S11332E001321378002BF9D10B005A460192029453
S11332F00A00413A192A10D8624602210A43D2B27E
S11333009446019A135401303A0096E7062088E067
S11333100B1E5A46019202946CD11A00613A192A82
S1133320EFD8624649460A43D2B29446203BDBB208
S1133330E7E70A78E52A18D0082D19D00322604659
S11333400240012A19D00C2260460240042A17D0F8
S1133350CB72002120003C4B984700285DD13C4BA8
S11333609B4608239846B14612E0E03A0A70E3E728
S113337062469200D2B29446E0E70F321343E2E78A
S113338004321343E4E700212000D047002844D14D
S113339021692068D84700283FD161690B78002B48
S11333A01AD0CE7A43463342EDD1A7690023CD5CCF
S11333B0FA5C9542E7D101330B2BF8D14B46B14669
S11333C01E00FB7A5B072CD44B46DB0614D5206821
S11333D0204B9847A06017E7A369DB7A04200340D9
S11333E05842584104301CE006201AE0062018E038
S11333F0062016E0062014E0052012E0062010E066
S11334000199029CF6190023002892D1062008E0B5
S11334100199029CF6190423F6E7A369DB7A0428D0
S1133420DCD005B03CBC90469946A246AB46F0BD04
S1133430082DE3D163469B00DBB29C4628003A008A
S11334400B25FAE6A5300000DD2D0000F148000050
S1133450E1260000FD250000F8B5050000211B4B06
S11334609847041E2BD11A4E1A4F04E0012128005C
S1133470B847041E27D129692868B047041E22D101
S11334806B691B78E52B01D0002BEFD129692868E3
S11334900F4B9847041E01D02000F8BD6B6919003A
S11334A0203100221A7001338B42FBD10B22A9690F
S11334B06869094B98472B6801221A71ECE70428C4
S11334C0EAD10724E8E7042CFBD0E5E7DD2D000072
S11334D0E1260000A5300000E9250000F8B5CE463D
S11334E0474680B504000D000220012902D9636912
S11334F0994203D30CBC90469946F8BD144F154B22
S113350098460123994603E035006369B342F1D933
S113351029002000B847061E13D0012813D0431CED
S113352013D0002229002000C0470028E2D12369DB
S11335305A1CE9D00133236163794A46134363710A
S1133540E2E70020D6E70220D4E70120D2E7C04614
S1133550E52C00008D2E000010B584B00190009180
S11335601400039103A8154B98470B23002814DB80
S11335708300134A9B58002B01D000221A70019B30
S1133580002B14D000221A70019A80000C4BC250F8
S11335900023002A01D0012C02D0180004B010BD71
S11335A00022694601A8074B98470300F5E780000D
S11335B00022034BC2500023EFE7C0461F26000041
S11335C058040020FD270000F0B5D6464F46464675
S11335D0C0B58CB00500019116000924002809D05B
S11335E0002303601E22324001A905A8574B9847C7
S11335F0041E06D020000CB01CBC90469946A2467E
S1133600F0BD1F233340984602AB0B93019905A8E4
S11336104F4B98470A9F002835D1002F00D188E0EE
S11336201C23334249D1FB7ADA0600D58CE0B20779
S113363002D5DB0700D585E0330703D520234246B6
S11336401A439046059BDB6AEB612F624346AB71DC
S113365000239846EB71059E390030003D4B984796
S11336602861FB7F1B06BA7F120413433A7F13437E
S11336707A7F12021343EB604346AB60AB612E606A
S1133680F388AB80B6E71C23334206D0042808D065
S1133690082342461A4390460A9F0028D6D00400C5
S11336A0A8E705A82C4B9847082342461A4390469E
S11336B00A9F002807D004009CE7FB7A11221A42D3
S11336C03CD173073CD443461B07BBD5234B9847D7
S11336D0B873030AFB73030C3B74000E7874002662
S11336E0FE723E777E77BE77FE77059B994639005A
S11336F01800184B98478246BE76FE763E757E7556
S113370001234A461371002898D0D66A010048461E
S1133710134B9847002801D004006BE705985346E3
S1133720013BC36031000F4B9847002886D004004A
S113373060E71C2306203342AAD1AEE7072459E7E9
S1133740082457E7072455E7042453E7FD2700001E
S1133750C9310000FD25000059340000E5250000B2
S1133760DD340000E1260000F0B5DE4657464E4643
S11337704546E0B583B004000E00150099460023C9
S11337804A4613605D4B98470190002808D1E379BD
S1133790002B00D0AFE0A379DB0709D40723019302
S11337A0019803B03CBC90469946A246AB46F0BD96
S11337B0E368A2689F1AAF4200D92F00002F56D1A8
S11337C0EEE761694E4B98475FE00223E371019392
S11337D0E6E70123E3710193E2E70223E371019336
S11337E0DEE70123E3710193DAE72100243140028B
S11337F0301880229200434B984771E0A2699345A8
S113380019D0A3795B060CD521002431534658788E
S113381001233D4DA847002865D1A3794022934355
S1133820A371210024312368587801235A46374D67
S1133830A84700285BD15B46A361A368D905C90DDD
S11338408025AD006D1ABD4200D93D0024316118B8
S11338502A0030002B4B98477619A3685B19A360A4
S11338604B461B685B194A4613607F1B98D0A368BC
S1133870DA05E2D120688278013A5D0A1540EDB29A
S1133880002D07D1002B9CD1206901289DD9431C10
S11338909FD0606123689A46616918001C4B984761
S11338A000289AD08346AB447B0A9846A6D0534658
S11338B09B784246AA189A4201D95B1B9846534604
S11338C0587843465A463100104DA847002888D1FD
S11338D0A3795B0604D5A3695A46981A804584D80F
S11338E043465D02B8E70123E371019358E70123DE
S11338F0E371019354E7019352E7C046C1270000E6
S1133900E52C0000E9250000652500003D250000A8
S1133910CD2C0000F0B5DE4657464E464546E0B590
S113392083B004000D001700994600234A46136033
S11339306F4B98470190002808D1E379002B00D001
S1133940D3E0A3799B0709D407230193019803B01B
S11339503CBC90469946A246AB46F0BDA368DA1932
S113396093420ED8002F0CD02E006BE00021614B47
S11339709847030003E061695E4B98470300002BFE
S113398071D1A368E268934200D9E360A37920224D
S11339901343A371DAE70133E3710193D6E70233EA
S11339A0E3710193D2E7210024312368587801237D
S11339B0A269514DA847002804D1A379402293431A
S11339C0A3715CE00123E3710193BFE70223E37178
S11339D00193BBE70123E3710193B7E74002311878
S11339E02000243080229200444B9847A37940223F
S11339F09343A37168E0A369984503D0A368E26880
S1133A00934264D34346A361A368D805C00D8025BF
S1133A10AD002D1ABD4200D93D00243020182A00E3
S1133A203100364B9847A37940221343A37176198A
S1133A30A3685B19A3604B461B685B194A46136075
S1133A407F1B9ED0A368DA05DED120688278013A14
S1133A505D0A1540EAB29346002A0DD1002B8AD1A3
S1133A602369002B82D0012B95D05A1C97D0636117
S1133A702269002A00D12361A3795B0693D42368C9
S1133A809A46616918001E4B984700289ED08046CC
S1133A9058468446D8447B0A9B46ACD053469B7810
S1133AA05A4662449A4201D91B1A9B465346587897
S1133AB05B4642463100104DA84700288AD1A369CD
S1133AC04246981A834589D85B465D02AFE72100D8
S1133AD0243153465878012342460A4DA84700280A
S1133AE090D00120E071019030E701932EE7C046A9
S1133AF0C1270000D92F000065250000E92500003A
S1133B00CD2C00003D25000070B50400264B9847DD
S1133B1000281AD1A3799A0617D55B060FD5210080
S1133B202431236858780123A269204DA847030053
S1133B300120002B09D1A37940229343A371E169A9
S1133B4020681B4B9847002800D070BD256AEB7A8B
S1133B5020221343EB72237B2B77A3891B0A6B77F9
S1133B60E389AB77E37BEB772369AB761A0AEA76D2
S1133B701B0C2B751B0A6B750E4B9847A875030A13
S1133B80EB75030C2B76000E68760023AB74EB7494
S1133B90A37920229343A37101232268137120681F
S1133BA0054B9847D1E7C046C127000065250000B2
S1133BB0E1260000E5250000D92B000010B5040023
S1133BC0064B9847002800D010BD2000044B9847AE
S1133BD00028F9D100232360F6E7C046093B000022
S1133BE0C1270000F0B585B00190009207000024C1
S1133BF04D1E104EAC4213DA02AB012203A9009809
S1133C00B047029B012B0BD103AB1B780D2BF1D0DA
S1133C107A1C3B7001340A2B01D01700EAE7170025
S1133C2000233B70631E9C416442019B23401800A7
S1133C3005B0F0BD6937000010B5024B9847024C3F
S1133C40A047FDE7152100003521000070B50128CB
S1133C5004D08022D201084B9A6070BD8022D20128
S1133C60054B9A610A24054DFF20A847013CE4B2A4
S1133C70002CF9D1F1E7C04600440041294000007E
S1133C80F0B5C64600B582B080460F00019280248C
S1133C90E4001E4EFF20B047013CA4B2FF2801D12E
S1133CA0002CF7D101201A4DA847FF20174EB0472A
S1133CB00020A8474020434603431800B047380E6D
S1133CC0B047380CC0B2B047380AC0B2B047F8B2F7
S1133CD0B0470198B0470D4EFF20B0470500013CA6
S1133CE0A4B2FF2805D1002CF6D10A480A4B984704
S1133CF001E0002CF9D00120054B9847FF20034B2D
S1133D009847280002B004BC9046F0BD294000004A
S1133D104D3C00002849000005410000F8B54E4B19
S1133D2098474E484E4B98470A244E4DFF20A847CB
S1133D30013CE4B2002CF9D14B4D4C4F4C48A84700
S1133D40952200214020B84706004A48444B984732
S1133D50012E5BD04848444B98470134A4B2C82C88
S1133D60ECD15AE04548404B98478722D521490079
S1133D7048203E4B9847070001283ED1FF220021EE
S1133D8077203A4CA047FF228021C9056920A0472B
S1133D903B4C364E8025ED05002810D0FF22002133
S1133DA07720B047FF2229006920B047013CA4B224
S1133DB0002CF1D133482C4B98473E0020E0FF22E1
S1133DC000217A30294B98470600002400280FD19F
S1133DD02D4F2E4DB84728550134042CFAD12B4BC6
S1133DE01B785B0620D40222294B1A7029481FE055
S1133DF029481D4B98473E0002E028481A4B984733
S1133E003000F8BD2648184B98471BE02548164B50
S1133E1098470134A4B2C72CA4D92348124CA04714
S1133E202248A0470126EBE70422194B1A702048C8
S1133E300D4B9847FF228021890050200B4B984757
S1133E400028DFD11B48084B98471B4B984701209B
S1133E501A4B9847D4E7C046653F000093760A00A2
S1133E60292400002940000005410000813C000095
S1133E706C490000CA1A0000704A0000C0490000E2
S1133E80FEFF0000D849000035400000BC080020B7
S1133E905E04002044490000F84900000C4A000078
S1133EA0284A0000604A000080490000A849000038
S1133EB058490000444A0000C13E00004D3C000047
S1133EC0204AD3699B07FCD41F4A136A10210B4371
S1133ED013621E4A1E4B5A801A005378DB09FCD128
S1133EE01C4B1D4A9A621D4A9A624D215A5C40201D
S1133EF002435A54134A13684B398B431360D369F2
S1133F00DB07FCD40F4A136801210B4313601368C9
S1133F10DB07FCD40B4AD369DB07FCD4D3699B07CA
S1133F20F9D4084B0E4A1A60802292025A60012288
S1133F301A731A6802210A431A601A00D3699B078C
S1133F40FCD47047001000420004004016400000FA
S1133F50000C004000440041000003D2000001D2E4
S1133F600C002300204AD3699B07FCD41F4A136A20
S1133F7010210B4313621E4A1E4B5A801A005378B9
S1133F80DB09FCD11C4B1D4A9A621D4A9A624D21E1
S1133F905A5C402002435A54134A13684B398B43EA
S1133FA01360D369DB07FCD40F4A136801210B4368
S1133FB013601368DB07FCD40B4AD369DB07FCD41A
S1133FC0D3699B07F9D4084B0E4A1A6080229202E7
S1133FD05A603B221A731A6802210A431A601A00B3
S1133FE0D3699B07FCD470470010004200040040D2
S1133FF016400000000C004000440041000003D2C1
S1134000000001D20C002300064A137EDB07FCD516
S1134010044B98621A00137E5B07FCD5014B986A27
S1134020C0B270470010004210B5014B984710BD54
S11340300940000010B5FF20014B984710BDC04651
S11340400940000070B5214A136820210B43136016
S11340501F4A204B5A80204B8022D2039A6056225A
S1134060995C01263143C9B299543B24195D473AFE
S11340709143022211431955802212045A60572198
S11340805D5C042295435D545A5C3243D2B25A5467
S1134090195D0F220A4020210A431A550F4C104B78
S11340A02360C0239B026360000140420D4B9C4689
S11340B06044010C00040B4A00230B4DA84780B256
S11340C0A081236802221343236070BD20040040B2
S11340D017400000000C004000440041001400425E
S11340E004001040006CDC0245420000034A1378CF
S11340F0002BFCD080B2024B188070471814004289
S11341002814004270B504000D20074B984720780E
S1134110002807D00134044DA8470134631E1878E1
S11341200028F9D170BDC046ED40000000224308CC
S11341308B4274D303098B425FD3030A8B4244D36B
S1134140030B8B4228D3030C8B420DD3FF220902AD
S113415012BA030C8B4202D31212090265D0030B6C
S11341608B4219D300E0090AC30B8B4201D3CB0362
S1134170C01A5241830B8B4201D38B03C01A5241A4
S1134180430B8B4201D34B03C01A5241030B8B42A6
S113419001D30B03C01A5241C30A8B4201D3CB0291
S11341A0C01A5241830A8B4201D38B02C01A524176
S11341B0430A8B4201D34B02C01A5241030A8B4279
S11341C001D30B02C01A5241CDD2C3098B4201D391
S11341D0CB01C01A524183098B4201D38B01C01A0F
S11341E0524143098B4201D34B01C01A5241030986
S11341F08B4201D30B01C01A5241C3088B4201D335
S1134200CB00C01A524183088B4201D38B00C01AE1
S1134210524143088B4201D34B00C01A5241411A08
S113422000D20146524110467047FFE701B5002015
S113423000F006F802BDC0460029F7D076E77047C3
S11342407047C046002B11D1002A0FD1002900D19C
S1134250002802D00021C943081C07B4024802A167
S11342604018029003BDC046D9FFFFFF03B468465F
S113427001B5029800F006F8019B9E4602B00CBC02
S11342807047C046F0B557464E464546DE46E0B553
S1134290040083B00D00924699468B422FD82CD04F
S11342A04946504600F0AEF829000600200000F010
S11342B0A9F8331A9846203B9B4600D574E0534630
S11342C05A4693401F005346424693401E00AF4255
S11342D029D826D05B46A41BBD41002B00DA79E027
S11342E0002200230092019301235A469340019334
S11342F0012342469340009319E08242D0D9002220
S11343000023009201930C9B002B01D01C605D6084
S11343100098019903B03CBC90469946A246AB462E
S1134320F0BDA342D6D90022002300920193434654
S1134330002BE8D0FB0772081A4346467B080EE0C0
S1134340AB4201D1A2420CD8A41A9D4101202419E8
S11343506D410021013E24184D41002E06D0AB4290
S1134360EED9013E24196D41002EF8D15B46009828
S1134370019900196941002B22DB2B005A46D340D6
S11343802A004446E2401C005B461500002B2CDB4F
S113439026009E40330026004746BE403200801A65
S11343A0994100900191AEE7424620239B1A524660
S11343B0DA40414613004A468A4017001F4382E709
S11343C0424620239B1A2A0046469A402300F34083
S11343D01343D5E74246202300219B1A0022009173
S11343E001920122DA40019282E74246202326000C
S11343F09B1ADE402F00B446974066463B00334389
S1134400C9E7C04610B5002903D100F007F82030F1
S113441002E0081C00F002F810BDC0461C21012374
S11344201B04984201D3000C10391B0A984201D393
S1134430000A08391B09984201D30009043902A271
S1134440105C40187047C0460403020201010101D8
S1134450000000000000000070B50D4E0D4D00245A
S1134460AD1BAD1005D0A300F35801349847A54205
S1134470F9D100F007FB084E084D0024AD1BAD1028
S113448005D0A300F35801349847A542F9D170BD73
S1134490904A0000904A0000904A0000984A0000A8
S11344A0034B10B5002B02D0024800F005F810BDF4
S11344B000000000C944000010B5010000230022E0
S11344C0002000F01FF810BD70B5094B094CE41A28
S11344D0A41009D0084AA518AD00ED182B68013CBA
S11344E09847043D002CF9D100F0D6FA70BDC046BF
S11344F0A44A0000A84A0000FFFFFF3F7047C046DF
S11345007047C046F0B54E464546DE465746E0B5D0
S1134510364D83B00600286898460F009146FFF791
S1134520EDFF334B1C68A4235B00E058002852D0F5
S113453043681F2B13DC5A1C0192002E28D1019AC8
S113454002339B0042601F502868FFF7D9FF002008
S113455003B03CBC90469946A246AB46F0BD254B01
S1134560002B3DD0C820400000E000BF002837D019
S1134570A42200235200A15843600160A05040329D
S1134580835004328350013301930023002ED6D08C
S11345909A00924682444A46882154466250C42274
S11345A05200914681444A468739994012688B46A5
S11345B00A4394464A4661461160842241465200A9
S11345C0A150022EBBD102005C468D32FF3211682D
S11345D00C431460B3E720004D30FF30E050A7E7F0
S11345E02868FFF78DFF01204042B1E7380400201E
S11345F0804A000000000000496E697469616C69BA
S11346007A696E672053504920696E20736C6F7706
S1134610206D6F64650A000053504920696E697407
S113462069616C697A6174696F6E20646F6E650A82
S1134630000000005374617274696E672053442053
S11346406361726420696E697469616C697A61740A
S1134650696F6E0A0000000048656C6C6F20686F1B
S1134660772061726520753F0A000000534420637F
S113467061726420696E697469616C697A617469D4
S11346806F6E20646F6E650A000000004D6F756EDA
S113469074696E672066696C652073797374656DDF
S11346A00A00000046696C652073797374656D2097
S11346B06D6F756E7465640A000000004572726F58
S11346C072206D6F756E74696E672066696C652003
S11346D073797374656D0A004F70656E696E672037
S11346E066696C6520666F722077726974696E679B
S11346F00A0000004572726F72206F70656E696EF9
S1134700672066696C650A0046696C65206F706590
S11347106E6564207375636365737366756C6C7919
S11347200A00000057726974696E6720746F20660E
S1134730696C650A000000004461746131202C44F6
S113474061746132202C4461746133202C4461749F
S11347506134200D0A0000004572726F7220777276
S11347606974696E6720746F2066696C650A00005D
S113477057726974696E6720636F6D706C657465D8
S1134780640A0000436C6F73696E672066696C6528
S11347900A0000004572726F7220636C6F73696E59
S11347A0672066696C650A0046696C6520636C6FF6
S11347B0736564207375636365737366756C6C7974
S11347C00A0000005375636365737366756C205744
S11347D0726974652046696C6520446F6E65210AB0
S11347E0000000005374617274696E6720746F2056
S11347F0726561642066696C650A00004572726FB7
S113480072206F70656E696E672066696C652066DC
S11348106F722072656164696E670A0046696C652F
S1134820206F70656E656420666F722072656164C6
S1134830696E670A000000005468652066696C654B
S113484020636F6E7461696E733A200A0000000081
S113485052656164696E6720636F6D706C65746521
S1134860640A0000436C6F73696E672066696C6547
S11348702061667465722072656164696E670A00FE
S11348804572726F7220636C6F73696E672066691C
S11348906C652061667465722072656164696E6717
S11348A00A00000046696C6520636C6F73656420C0
S11348B07375636365737366756C6C792061667474
S11348C065722072656164696E670A00726561646D
S11348D02032200A000000007772697465203120BC
S11348E00A00000077726974652032200A00000013
S11348F0222A2B2C3A3B3C3D3E3F5B5D7C7F0000F3
S11349005265616420776169742074696D656F759F
S1134910740A0000526561647920776169742074B7
S1134920696D656F75740A00436F6D6D616E642007
S1134930726573706F6E73652074696D656F7574DD
S11349400A0000004361726420547970653A20566D
S1134950322E300A00000000436172643A2056325D
S11349602E3020534448430A0000000053656E640F
S1134970696E6720434D44302E2E2E0A000000003D
S11349804661696C656420746F2072657365742078
S11349906361726420616674657220323030207203
S11349A06574726965730A004661696C6564207494
S11349B06F20726573657420636172640A0000007D
S11349C043617264207265736574207375636365F3
S11349D0737366756C0A000054696D656F75742095
S11349E0647572696E6720696E697469616C697A4D
S11349F06174696F6E0A00004572726F722072658D
S1134A006164696E67204F43520A0000556E7375E6
S1134A1070706F7274656420534420636172642003
S1134A20747970650A0000004572726F72207365B4
S1134A307474696E6720626C6F636B206C656E675B
S1134A4074680A00496E697469616C697A61746991
S1134A506F6E20636F6D706C6574650A00000000F2
S1134A60434D443020737563636573730A0000001B
S1134A70434D4430206661696C65640A000000009F
S1134A8010000020F8B5C046F8BC08BC9E4670472C
S1134A90A1440000DD200000F8B5C046F8BC08BC05
S10B4AA09E467047B52000009A
S10B4AA8DCF7FF7F01000000B0
S1134AB0446174612E7478740000000000000000EA
S1134AC000000000FC02002064030020CC0300204E
S1134AD000000000000000000000000000000000D2
S1134AE000000000000000000000000000000000C2
S1134AF000000000000000000000000000000000B2
S1134B0000000000000000000000000000000000A1
S1134B100000000000000000000000000000000091
S1134B200000000000000000000000000000000081
S1134B300000000000000000000000000000000071
S1134B400000000000000000000000000000000061
S1134B500000000000000000000000000000000051
S1134B600000000000000000010000000000000040
S1134B700E33CDAB34126DE6ECDE05000B00000005
S1134B800000000000000000000000000000000021
S1134B900000000000000000000000000000000011
S1134BA00000000000000000000000000000000001
S1134BB000000000000000000000000000000000F1
S10F4EE00000000000000000C00A0020D8
S9032000DC
